{"abi":[{"type":"constructor","inputs":[],"stateMutability":"nonpayable"},{"type":"function","name":"getBalance","inputs":[{"name":"user","type":"address","internalType":"address"}],"outputs":[{"name":"","type":"uint256","internalType":"uint256"}],"stateMutability":"view"},{"type":"function","name":"getLockedBalance","inputs":[{"name":"user","type":"address","internalType":"address"},{"name":"dealId","type":"string","internalType":"string"}],"outputs":[{"name":"","type":"uint256","internalType":"uint256"}],"stateMutability":"view"},{"type":"function","name":"lockBalance","inputs":[{"name":"user","type":"address","internalType":"address"},{"name":"amount","type":"uint256","internalType":"uint256"},{"name":"dealId","type":"string","internalType":"string"}],"outputs":[],"stateMutability":"nonpayable"},{"type":"function","name":"refundBalance","inputs":[{"name":"user","type":"address","internalType":"address"},{"name":"dealId","type":"string","internalType":"string"}],"outputs":[],"stateMutability":"nonpayable"},{"type":"function","name":"releaseBalance","inputs":[{"name":"from","type":"address","internalType":"address"},{"name":"to","type":"address","internalType":"address"},{"name":"amount","type":"uint256","internalType":"uint256"},{"name":"dealId","type":"string","internalType":"string"}],"outputs":[],"stateMutability":"nonpayable"},{"type":"function","name":"setAdmin","inputs":[{"name":"newAdmin","type":"address","internalType":"address"}],"outputs":[],"stateMutability":"nonpayable"},{"type":"function","name":"updateBalance","inputs":[{"name":"user","type":"address","internalType":"address"},{"name":"amount","type":"uint256","internalType":"uint256"}],"outputs":[],"stateMutability":"nonpayable"},{"type":"event","name":"BalanceLocked","inputs":[{"name":"user","type":"address","indexed":true,"internalType":"address"},{"name":"amount","type":"uint256","indexed":false,"internalType":"uint256"},{"name":"dealId","type":"string","indexed":false,"internalType":"string"}],"anonymous":false},{"type":"event","name":"BalanceReleased","inputs":[{"name":"from","type":"address","indexed":true,"internalType":"address"},{"name":"to","type":"address","indexed":true,"internalType":"address"},{"name":"amount","type":"uint256","indexed":false,"internalType":"uint256"},{"name":"dealId","type":"string","indexed":false,"internalType":"string"}],"anonymous":false},{"type":"event","name":"BalanceUpdated","inputs":[{"name":"user","type":"address","indexed":true,"internalType":"address"},{"name":"amount","type":"uint256","indexed":false,"internalType":"uint256"},{"name":"timestamp","type":"uint256","indexed":false,"internalType":"uint256"}],"anonymous":false}],"bytecode":{"object":"0x608060405234801561001057600080fd5b50600280546001600160a01b031916331790556109a6806100326000396000f3fe608060405234801561001057600080fd5b506004361061007d5760003560e01c80632ed21e9e1161005b5780632ed21e9e146100cf578063704b6c02146100e2578063e0b1cccb146100f5578063f8b2cb4f1461010857600080fd5b806321258a2a14610082578063268792cf146100975780632b71289f146100bc575b600080fd5b61009561009036600461073e565b610131565b005b6100aa6100a536600461073e565b6102af565b60405190815260200160405180910390f35b6100956100ca366004610791565b6102ef565b6100956100dd3660046107eb565b61042e565b6100956100f036600461085a565b6105b4565b61009561010336600461087c565b610656565b6100aa61011636600461085a565b6001600160a01b031660009081526020819052604090205490565b6002546001600160a01b031633146101645760405162461bcd60e51b815260040161015b906108a6565b60405180910390fd5b6001600160a01b038316600090815260016020526040808220905161018c90859085906108e8565b9081526020016040518091039020549050600081116101ed5760405162461bcd60e51b815260206004820152601f60248201527f4e6f206c6f636b65642062616c616e636520666f722074686973206465616c00604482015260640161015b565b6001600160a01b038416600090815260016020526040808220905161021590869086906108e8565b90815260200160405180910390208190555080600080866001600160a01b03166001600160a01b03168152602001908152602001600020600082825461025b919061090e565b90915550506040516001600160a01b0385169081907fb06fdcf7009d6d6950b6ea4b0d88f5fb60ab29d5554457d3064ac3389db3b4ed906102a190859088908890610927565b60405180910390a350505050565b6001600160a01b03831660009081526001602052604080822090516102d790859085906108e8565b90815260200160405180910390205490509392505050565b6002546001600160a01b031633146103195760405162461bcd60e51b815260040161015b906108a6565b6001600160a01b0384166000908152602081905260409020548311156103785760405162461bcd60e51b8152602060048201526014602482015273496e73756666696369656e742062616c616e636560601b604482015260640161015b565b6001600160a01b038416600090815260208190526040812080548592906103a090849061095d565b90915550506001600160a01b0384166000908152600160205260409081902090518491906103d190859085906108e8565b908152602001604051809103902081905550836001600160a01b03167f793f8c269d41cf5e2777026c98c4af18b6b84ff388633c271c81b68ebf2a551f84848460405161042093929190610927565b60405180910390a250505050565b6002546001600160a01b031633146104585760405162461bcd60e51b815260040161015b906108a6565b6001600160a01b03851660009081526001602052604090819020905184919061048490859085906108e8565b90815260200160405180910390205410156104e15760405162461bcd60e51b815260206004820152601b60248201527f496e73756666696369656e74206c6f636b65642062616c616e63650000000000604482015260640161015b565b6001600160a01b03851660009081526001602052604090819020905184919061050d90859085906108e8565b9081526020016040518091039020600082825461052a919061095d565b90915550506001600160a01b0384166000908152602081905260408120805485929061055790849061090e565b92505081905550836001600160a01b0316856001600160a01b03167fb06fdcf7009d6d6950b6ea4b0d88f5fb60ab29d5554457d3064ac3389db3b4ed8585856040516105a593929190610927565b60405180910390a35050505050565b6002546001600160a01b031633146105de5760405162461bcd60e51b815260040161015b906108a6565b6001600160a01b0381166106345760405162461bcd60e51b815260206004820181905260248201527f4e65772061646d696e2063616e6e6f74206265207a65726f2061646472657373604482015260640161015b565b600280546001600160a01b0319166001600160a01b0392909216919091179055565b6002546001600160a01b031633146106805760405162461bcd60e51b815260040161015b906108a6565b6001600160a01b03821660008181526020818152604091829020849055815184815242918101919091527f5e00297b9c4f8fef460c4d7123316eeeb08a64a0930d1d9cae0b61b7f663b254910160405180910390a25050565b80356001600160a01b03811681146106f057600080fd5b919050565b60008083601f84011261070757600080fd5b50813567ffffffffffffffff81111561071f57600080fd5b60208301915083602082850101111561073757600080fd5b9250929050565b60008060006040848603121561075357600080fd5b61075c846106d9565b9250602084013567ffffffffffffffff81111561077857600080fd5b610784868287016106f5565b9497909650939450505050565b600080600080606085870312156107a757600080fd5b6107b0856106d9565b935060208501359250604085013567ffffffffffffffff8111156107d357600080fd5b6107df878288016106f5565b95989497509550505050565b60008060008060006080868803121561080357600080fd5b61080c866106d9565b945061081a602087016106d9565b935060408601359250606086013567ffffffffffffffff81111561083d57600080fd5b610849888289016106f5565b969995985093965092949392505050565b60006020828403121561086c57600080fd5b610875826106d9565b9392505050565b6000806040838503121561088f57600080fd5b610898836106d9565b946020939093013593505050565b60208082526022908201527f4f6e6c792061646d696e2063616e20706572666f726d2074686973206163746960408201526137b760f11b606082015260800190565b8183823760009101908152919050565b634e487b7160e01b600052601160045260246000fd5b80820180821115610921576109216108f8565b92915050565b83815260406020820152816040820152818360608301376000818301606090810191909152601f909201601f1916010192915050565b81810381811115610921576109216108f856fea2646970667358221220ead50cae2ec29c5a6f17725f29c9d0743da48c0e9a55e36ee42e15a04e73193864736f6c63430008110033","linkReferences":{}},"methodIdentifiers":{"getBalance(address)":"f8b2cb4f","getLockedBalance(address,string)":"268792cf","lockBalance(address,uint256,string)":"2b71289f","refundBalance(address,string)":"21258a2a","releaseBalance(address,address,uint256,string)":"2ed21e9e","setAdmin(address)":"704b6c02","updateBalance(address,uint256)":"e0b1cccb"},"id":0}